{
  "contractName": "CarController",
  "abi": [
    {
      "anonymous": false,
      "inputs": [
        {
          "indexed": false,
          "name": "_command",
          "type": "string"
        }
      ],
      "name": "CarCommandSent",
      "type": "event",
      "signature": "0x787974f576d067af0a10f4ded8c490181c968b0778f075dfa5ab9e2501a4836f"
    },
    {
      "constant": false,
      "inputs": [
        {
          "name": "x",
          "type": "uint256"
        }
      ],
      "name": "putSomething",
      "outputs": [],
      "payable": false,
      "stateMutability": "nonpayable",
      "type": "function",
      "signature": "0x9a0fed23"
    },
    {
      "constant": true,
      "inputs": [],
      "name": "get",
      "outputs": [
        {
          "name": "",
          "type": "uint256"
        }
      ],
      "payable": false,
      "stateMutability": "view",
      "type": "function",
      "signature": "0x6d4ce63c"
    },
    {
      "constant": false,
      "inputs": [
        {
          "name": "_command",
          "type": "string"
        }
      ],
      "name": "sendCommand",
      "outputs": [
        {
          "name": "commandSent",
          "type": "bool"
        }
      ],
      "payable": false,
      "stateMutability": "nonpayable",
      "type": "function",
      "signature": "0x8aed8040"
    }
  ],
  "bytecode": "0x608060405234801561001057600080fd5b50610288806100206000396000f3fe608060405260043610610057576000357c0100000000000000000000000000000000000000000000000000000000900463ffffffff1680636d4ce63c1461005c5780638aed8040146100875780639a0fed2314610167575b600080fd5b34801561006857600080fd5b506100716101a2565b6040518082815260200191505060405180910390f35b34801561009357600080fd5b5061014d600480360360208110156100aa57600080fd5b81019080803590602001906401000000008111156100c757600080fd5b8201836020820111156100d957600080fd5b803590602001918460018302840111640100000000831117156100fb57600080fd5b91908080601f016020809104026020016040519081016040528093929190818152602001838380828437600081840152601f19601f8201169050808301925050505050505091929192905050506101ab565b604051808215151515815260200191505060405180910390f35b34801561017357600080fd5b506101a06004803603602081101561018a57600080fd5b8101908080359060200190929190505050610252565b005b60008054905090565b60007f787974f576d067af0a10f4ded8c490181c968b0778f075dfa5ab9e2501a4836f826040518080602001828103825283818151815260200191508051906020019080838360005b8381101561020f5780820151818401526020810190506101f4565b50505050905090810190601f16801561023c5780820380516001836020036101000a031916815260200191505b509250505060405180910390a160019050919050565b806000819055505056fea165627a7a72305820cb67c1fcce029f20e54756b73b2cb64dce5cb0bad08220bceaec5fe1c13c547e0029",
  "source": "pragma solidity >=0.4.21 <0.6.0;\n\n/**\n * @title Car Controller\n * @author Pines & Electronics\n *\n * @dev Simple contract emitting an event.\n */\ncontract CarController {\n\n    \n    /**\n     * @dev CarCommandSent event register in the log the commands that you send to the car.\n     */\n    event CarCommandSent(\n        string _command\n    );\n\n    uint storedData;\n\n    function putSomething(uint x) public {\n        storedData = x;\n    }\n\n    function get() public view returns (uint) {\n        return storedData;\n    }\n    \n\n    /**\n     * @notice Send command\n     *\n     * @dev send the event with the car command.\n     *\n     * @param _command refers to the attribute value, limited to 2048 bytes.\n     * @return true when the command was emitted properly.\n     */\n    function sendCommand (\n        string memory _command\n    )\n        public\n        returns (bool commandSent)\n    {\n\n        emit CarCommandSent(\n            _command\n        );\n\n        return true;\n    }\n\n}\n",
  "sourcePath": "/home/p/Documents/dev/pi_nature2/frontend_new/web3reactbox/contracts/CarController.sol",
  "compiler": {
    "name": "solc",
    "version": "0.5.0+commit.1d4f565a.Emscripten.clang"
  },
  "schemaVersion": "3.0.6",
  "updatedAt": "2019-04-13T16:21:33.936Z",
  "devdoc": {
    "author": "Pines & Electronics",
    "details": "Simple contract emitting an event.",
    "methods": {
      "sendCommand(string)": {
        "details": "send the event with the car command.",
        "params": {
          "_command": "refers to the attribute value, limited to 2048 bytes."
        },
        "return": "true when the command was emitted properly."
      }
    },
    "title": "Car Controller"
  },
  "userdoc": {
    "methods": {
      "sendCommand(string)": {
        "notice": "Send command"
      }
    }
  }
}