{
  "contractName": "CarController",
  "abi": [
    {
      "anonymous": false,
      "inputs": [
        {
          "indexed": false,
          "name": "_command",
          "type": "string"
        }
      ],
      "name": "CarCommandSent",
      "type": "event",
      "signature": "0x787974f576d067af0a10f4ded8c490181c968b0778f075dfa5ab9e2501a4836f"
    },
    {
      "constant": false,
      "inputs": [
        {
          "name": "_command",
          "type": "string"
        }
      ],
      "name": "sendCommand",
      "outputs": [
        {
          "name": "commandSent",
          "type": "bool"
        }
      ],
      "payable": false,
      "stateMutability": "nonpayable",
      "type": "function",
      "signature": "0x8aed8040"
    }
  ],
  "bytecode": "0x608060405234801561001057600080fd5b506101f9806100206000396000f3fe608060405260043610610041576000357c0100000000000000000000000000000000000000000000000000000000900463ffffffff1680638aed804014610046575b600080fd5b34801561005257600080fd5b5061010c6004803603602081101561006957600080fd5b810190808035906020019064010000000081111561008657600080fd5b82018360208201111561009857600080fd5b803590602001918460018302840111640100000000831117156100ba57600080fd5b91908080601f016020809104026020016040519081016040528093929190818152602001838380828437600081840152601f19601f820116905080830192505050505050509192919290505050610126565b604051808215151515815260200191505060405180910390f35b60007f787974f576d067af0a10f4ded8c490181c968b0778f075dfa5ab9e2501a4836f826040518080602001828103825283818151815260200191508051906020019080838360005b8381101561018a57808201518184015260208101905061016f565b50505050905090810190601f1680156101b75780820380516001836020036101000a031916815260200191505b509250505060405180910390a16001905091905056fea165627a7a7230582059ab22ba40ea47e17bd7425bb58a235c0ae65d6508dccf8875e101a37e8566460029",
  "source": "pragma solidity >=0.4.21 <0.6.0;\n\n/**\n * @title Car Controller\n * @author Pines & Electronics\n *\n * @dev Simple contract emitting an event.\n */\ncontract CarController {\n    \n    /**\n     * @dev CarCommandSent event register in the log the commands that you send to the car.\n     */\n    event CarCommandSent(\n        string _command\n    );\n\n    /**\n     * @notice Send command\n     *\n     * @dev send the event with the car command.\n     *\n     * @param _command refers to the attribute value, limited to 2048 bytes.\n     * @return true when the command was emitted properly.\n     */\n    function sendCommand (\n        string memory _command\n    )\n        public\n        returns (bool commandSent)\n    {\n\n        emit CarCommandSent(\n            _command\n        );\n\n        return true;\n    }\n\n}\n",
  "sourcePath": "/Users/supdann/Documents/Hackathons/20190412_ODYSSEY/pines_dao3/contracts/CarController.sol",
  "compiler": {
    "name": "solc",
    "version": "0.5.0+commit.1d4f565a.Emscripten.clang"
  },
  "schemaVersion": "3.0.6",
  "updatedAt": "2019-04-13T19:20:03.422Z",
  "devdoc": {
    "author": "Pines & Electronics",
    "details": "Simple contract emitting an event.",
    "methods": {
      "sendCommand(string)": {
        "details": "send the event with the car command.",
        "params": {
          "_command": "refers to the attribute value, limited to 2048 bytes."
        },
        "return": "true when the command was emitted properly."
      }
    },
    "title": "Car Controller"
  },
  "userdoc": {
    "methods": {
      "sendCommand(string)": {
        "notice": "Send command"
      }
    }
  }
}